:4000000000200020110000001D0900001D0900001C4A1D4B70B51A601C4B1D4D1A681023134000D12B602B68802B29D1194B1C79E4B2012C14D90021052000F0CBF8012185
:400040000400052000F0C6F8E4B2C0B2002C03D0041E05D0032403E0441EA0410224241A0023210002202B6000F0B4F8002807D0012C05D82100022000F0ACF800F0FEF8A7
:4000800001F0DAF86588EDAC3800034054000340900000209C0000200000000000000000000000000000000000000000000000000000000000000000000000000000000079
:4000C000000000000000000000000000000000000000000000000000000000000000000088030031626E0100B1110021000000000000000000000000000000000000000090
:4001000010B5064C2378002B07D1054B002B02D0044800E000BF0123237010BD10010020000000003C130000084B10B5002B03D00749084800E000BF07480368002B00D1C3
:4001400010BD064B002BFBD09847F9E700000000140100203C130000980000200000000018234343F0B5134CE3189D689A8A002D01D10D701CE0104B8600F658C2239B0060
:40018000F7581F231F403B1C082F00D908239BB20B70D021D3189BB28900934204D97758AF54013292B2F8E7182358432418A282F0BDC0462C01002040130000034A044946
:4001C00013689BB20B4313607047C0460CED00E00400FA05013810B50B2830D80902494201F094F806080A0C0E10141216191B20164B13E0164B16E0164B0AE0164B12E076
:40020000164B0BE0164B09E0164B02E0164B00E0164BC91815E0164B05E0164BC9180878C0B212E0144BC9180A7848788C780002230418430300C8781343000604E001BEB5
:4002400000210B7848780002184310BDC0FF0100C1FF0100C5FF0100C9FF0100D0FF0100D1FF0100D6FF0100D2FF0100D4FF0100D8FF0100DCFF0100E0FF010000470000E9
:400280000122024B60331A707047C0462C010020F7B5C37D827D1B0213430122324D01009446AB425DD182784478CB78120222431B0413431A000B791B06134351D08A7A90
:4002C0004C7ACB7A120222431B0413431A000B7B1B06134345D08A794879120202431202501CFF30214EC418B4423AD80F78040000210133FF339B180193019B834205D02B
:40030000037801309C466144C9B2F6E701234942C9B29C468F4224D1631CFF33B34220D8023B5B88AB421CD1FF34217AE37909021943607A00230A290ED080250C4CAD007F
:40034000141952195118A14204D0227801349B18DBB2F8E75B42DBB2C31A581E8341DBB29C466046FEBDC04659430000FFFF01000A020000F0B5214A214B85B0D1580192AC
:400380000293CB0338D50024FF272600E3B200930F230025634303931A48039B02005B1964321B01D218117AC9B2FF2913D0C318986E01389866986E00280CD11248177279
:4003C0004430025D013AD2B202551A6F002A02D01B6F0098984701350F2DDDD10A4B44331B5D002B00D001260134022CCED1002E02D1019B029A9E5005B0F0BD001000E08D
:4004000010D000002C0100202C030020134B8200D35830B51A68F821520052081A60182250430F4A102510180222027100200D4A0D4C98500122090152425A501959A943F4
:400440001951F42109015A5080315A508021D8661A6809060A431A6030BDC046401300002C010020880F0000480F0000654B8200F0B5D458002385B002AAD371624B060038
:40048000E25801231A4206D0604962589A436250E8221201A3505E4B0125E35800930223009AFF331A4202D000231D000093009BDB063FD518277743564BDF193A790193B2
:4004C000042A0BD002ABD91D3000FFF749FE0521BA8A3B69012039719847050018237343019A8020D31802221A7100229A8281239B00E25840020243E250E158464A1140D6
:40050000E1500133FF33E1580143E150E1580A40E25001224149635893436350F82310211B01E2503E4AA3588B43A350F42330221B01E250009B5B0639D5E82201271201EC
:40054000A3583B43A35018237343324AD3181A79022A29D1626ED2060DD504210022197110001B69984700281ED0F8231B01E7502A4BE75003E005221A71002D14D0F42343
:40058000302210211B01E250254A0125A3580B43A350244B1A004632925D002A01D1E56605E04A339D5502E002230025E366F423009A1B01E250002D03D13000FFF726FF4E
:4005C0001EE0194BE758FB0709D518237343114A0421D31800221B69100098470500F8231B01E750114BE758FB0704D502ABD91D3000FFF7B5FDFC231B01E750002DDCD0DA
:4006000005B0F0BD401300008C0E0000880E00004C0F00002C010020FFFFFEFF880F0000480F00002C0300208C0F0000CC0F000010B50020FFF71AFF10BD0000F7B500F022
:4006400029FE1F4B019019001F004E31FF31CA7D4E37002A2FD04C7C002C2CD1E62084464D33FF33DE8ABA195278BE5D0092154A9444604606706846150001260078E73289
:40068000107068354E74AA790F493243AA71DF220D682A400A601021DA8AFF31223292B28A4201D8DA8200E0DC82054B4E33FF33DA7D013ADA75019800F0F0FDF7BDC04656
:4006C0002C0300202C04002000020440012110B5104C084213D000220F4B4E33FF335A74DB7D934209D10D4A926E137053702200683293798B43937101E0FFF79FFF683459
:40070000A379002B04D0DF23054A11680B40136010BDC0462C0400202C030020AC05002000020440F0B500254B4BCBB0029501900395984200D98AE0802248495200E83137
:400740000AA800F0EDFDFF22454B464C0893464E464B08AF7A6027603360C04623681B0F0F2B03D1236813401D0004E023681B0F0A2B00D025680295029D002D69D100F0C3
:4007800089FD3B4A3B4B04A96C320493059221603949344B3160C0462168090F0F2902D11D68EDB204E01968090F0A2900D01D680395039B002B12D1304D2A492560304D0B
:4007C0003560C04625682D0F0F2D02D10B68DBB204E00D682D0F0A2D00D00B680293029B002B18D1274908910199089D09042943254D089127601B493560C04625682D0F16
:400800000F2D02D10B68DBB204E00D682D0F0A2D00D00B680293039B002B15D11B4D06A90695079221601A490E4A3160C0462168090F0F2902D11368DBB204E01168090F0F
:400840000A2900D01368039300F028FD01E00423029302984BB0F0BDFF0100002C040020B6D70000080010400400104004000080AC050020B6E9000016000080B6E80000BF
:4008800015000080B6D8000005000080B6EA000017000080F8B5050000F0FCFC1E4B04001A0019001F004E32FF32D07D4D31FF314E378A8A082815D1002A02D11132FF3234
:4008C0008A8219004D33FF339A8A0025223A93B281224E31CA54CB1820005D7000F0DEFC280017E00026BD54551CADB27E551025223292B2FF35AA4201D88A8200E08E82A2
:400900004E330130FF33D875FFF798FE200000F0C5FC0120F8BDC0462C03002010B500F0C1FC03680C2B00D1FEE7FEE770B5012852D10F233F4D6C79290026092340022A54
:4009400018D8012A0ED00024A64270D1022B07D1394B2A79E8339B18384A0400936066E0002B64D1344B0A7968339B18334A012493605CE0002B13D00400002E4CD1022B6D
:400980004AD12D482C79023AE830FE3392B200191B1B9A4200D91A00063100F0C1FC3AE0274B46331870002C0FD12B79062B0CD1214BA97968339B790B4206D021482034CF
:4009C0000168A143CBB22343036001241B4B023A92B21C73DA811FE0002404291CD182230826194D9B00EA58EA3B1449FF3B13408C68F31ADBB220001A1CB34200D9321C0D
:400A0000D2B2A31890229200834203D004780130AC50F9E78B600124084B197BC9B2002905D1812203485200043000F067FC200070BDC0462C0600202C0400202C07002092
:400A40002C0300200002044000000540F7B50122374C384D2368384E93432360002337489A002900032B00D8B15801338150232BF6D172B6FF22324B01271A600022314BC7
:400A800007261A60304B20321F60304B304D1A608022304B92021A6003222F4B1A602F4B21321A602E4B123A1A6000F0F3FB2B680190B3432B602B4B2B4A1B782B49DBB205
:400AC00013602B4A1368B34313602A4B0A6818787F239A43034013430B60322000F0D0FB05222B683220B34313432B6000F0C8FB06222B680198B34313432B6000F0CEFBA9
:400B000080221D4B52001A601C4A1D4B1A6040221C4B1A6000221C4B1A601C4A3B001168002900D11160226813432360F7BDC046000010401D090000000000000000002019
:400B400000050240000102400801044000020440080F0340080204400005044008050440300010407DF3FF0F0C0F0340180F0340100F034064F3FF0F0002014000FF0080C7
:400B800000000140280003400001014090000020F0B5D84C81222500D748D84B87B0E6355200002104309D60260000F0A7FB8C22D3486836520000214E3000F09FFB802292
:400BC0000021300000F09AFB952391223370CD498D3B737092008A58212172802200A43211601322B2802200200094321E391170C54A0830E267C267C44AC5499566C54A19
:400C0000012513700722A1670434E167C24CC34E2368C34F9343053A1343236033687820AB43DBB22B43336000F02AFB3B682B4201D1402310E00722236878209343043A57
:400C4000134323603368AB43DBB2336000F018FB3B682B4202D04223AE4A137007222368802193432360AB4BAE4C1E780023AE4A2360C12022668122800092004902E366A9
:400C8000A1502150A949F42563500121FE2749422D016151A64D3F046351083D6151A54D6351083D615175003D43C427BF002168E5510825113FFF35FF3FE5510137FF37F3
:400CC000E5519D4D04272943216001219B4D8C4629700221E970297187496E700431A96081214900A9819649AB822961FE21A970A7502750265893490E402650A05801409D
:400D0000A15042228949FF3262506146894AA1508D498E4A116080218D4AC90011608D498D4A886802408020400402438A6062B6724E8A483374FFF7ABFA00960294754EA0
:400D40000195002801D0009B1F748548FFF7A0FA002805D00822009B1B7C1343009A1374804B81481A68190092B2824208D100221A60009B01321B7C1343009A137495E08C
:400D80001A681868009B92B21C7C80B2230711D4764B984212D004237548234000D02BE282421AD06E4A6D48D469C569AC4207D202000EE00423234004D077E001230CE0D6
:400DC000012306E06A4CA24207D0684A904204D0624A928A6748824201D1002204E06648824202D0FA229200728033717788BFB2002F04D180230B60FFF7E0F956E00023DB
:400E0000FF21019A01986032137064301A018218013311720F2BF9D10024394B574D44331C70574E574A584BAC51EA50574B584A1A6000F02FFAFF23AC460396019E643619
:400E40002201B5182D7AE1B2FF2D00D10B00B218127A002A07D12A4A44321378013BDBB213700B0004E001340F2CE9D1FF2B1BD0019A019964321B019F52CD18D31800222F
:400E8000444929671A721E4AAF66130044331978002904D15B78DBB2002B00D18DE1443213780133DBB2137000F0F8F98020FFF7F1FC0822002104A800F020FA0D49942075
:400EC0000A00009B68321B7C107053705A0703D5802204AC920007E0204A52681202120C01321402E03492B21B0755D5802304A89B0059E02C0400202C0600202C0700207A
:400F00002C03002000F0FF0F626E0100AC050020880300319C0000200801044000010440040104400000054088280040480F0000880F0000C80F0000000100802C010020A7
:400F40002D090000FFFFFEFF310600006800002000E100E000050440FFFFFFF8C0FF0100C0FE0100900000204C420000324200003142000059430000FFFF0000001000E054
:400F800010D00000BF5D000014D000003C00002075030000810200009A4B5B681B021B0C01331802E0309BB20F000E00E0256837019778369C4688CD88C60D00803548CC01
:400FC00048C5883118C818C1019B8F4F1A8562465A851423009A538213228C4B7A81FB803B810193009B1B7B002B00D1B7E0884C63791B0900D09CE0009B2079DA890638A1
:40100000D2B2062800D9E8E000F080F904E708E72A333B00A079FFF759FB8AE0012A00D8DBE0A2790523522A00D07FE0E479002C0FD0012C7AD1202076490A688243D3B26E
:4010400003430B6072B60022734B1A60FFF7B6F86FE00720FFF73AFB2000FFF7D7F906E0A2790523502A61D1009B4F3A1A7502235CE0A379012B00D1A7E0022B55D161488D
:40108000A4E00523032A51D9A279462A4ED1E279012A2FD1009B1A7D0723002A46D0657A227A2D021543009A528AAA423ED8FA88AA4202D23A89AA4238D1019B9D4201D1A0
:4010C000504E04E0FF235B009D420CD1534E3000FFF7DEF80023984200D1F369E2225049013352008B502800FFF71CFB0223002800D00533E279002A18D1009B1A7D07231C
:40110000002A13D0617A227A090211437A898A420CD2019A914209D88022414809025200E83000F0FDF8032300E009231800FFF7B1FB8122364B5200181D002100F0DEF8CD
:401140000022009B1A73374B19004A3346310A701978914203D01A70029B0132DA66009B314C1B7D002B1DD000F094F82100002264311301CB181D001B7A0835002B2ED020
:4011800001320F2AF5D1274B44331A78002A03D15B78DBB2002B2BD000F080F82300002260331A7060342378002B00D11AE78022194B1A60FFF702F814E764461B496350DC
:4011C00007236146039C0B5169E61448FFF760F802230028AAD00633A8E70523A6E7FF23104A2B7044321378013BDBB21370CAE70F4A10498B50CFE7824200D1DEE5012312
:40120000004AE6E5C0FE01009C000020FF0100002C0600200002044090000020C0FF01002C0400202C0300202C01002018D0000010D00000001000E0F8B500250E490F4BEF
:4012400001394A1C14D000221F685C689E68A018B24203D0B858A0500432F8E70200DE68141AA64201D020C2FAE710330139E8E700F01EF8FFF78CFC010000007813000095
:401280000230800804D0C0460138FDD1C046C046C0467047EFF3108072B6704780F310887047C046014B18687047C046080100200E4B70B500251E000D4CE41AA410A5424C
:4012C00004D0AB00F35898470135F8E700F042F8084B00251E00084CE41AA410A54204D0AB00F35898470135F8E770BD601300006013000060130000681300000300821827
:40130000934202D019700133FAE7704702B4714649084900095C49008E4402BC7047C046002310B59A4203D0CC5CC4540133F9E710BD00001A0000000014000000000000C9
:401340000000054000000640000007400000084043000000F8B5C046F8BC08BC9E467047290100004D0A0000F8B5C046F8BC08BC9E467047010100008813000098000020AE
:40138000780000003806000000000000080032000200FF010002FF0100000000000000000000000000000000000000000000000000000000000000005013000000000000D6
:4013C0000000000000000000000000000000000000000000000000000000000000000000000000000000000000000000000000000000000000000000A80000200000000025
:40140000003000200119000081190000811900000000000000000000000000000000000000000000000000000000000000000000000000000000000000000000000000000E
:40144000000000000000000000000000000000000000000000000000000000000000000000000000000000000000000000000000000000000000000000000000000000006C
:40148000000000000000000000000000000000000000000000000000000000000000000000000000000000000000000000000000000000000000000000000000000000002C
:4014C0000000000000000000000000000000000000000000000000000000000000000000FF090034626E0200B11100210000000000000000000000000000000000000000FB
:401500005943001401200004CA2B00000000020000020C140000000000000000000000000C02140020020C002C020C00380219005402180000000000000000000000000072
:4015400001010000000000140003070000070100000101000100000000000000000000002C91010204D10200E1C00300000000000000000000000000000000000000000005
:401580000000000000000000000000000000000000000000000000000000000000000000000000000000000013006C027002780200007C02000000008002000000000000BE
:4015C000000000000000000098020000000000000000000000000000A002A4020000000000000000B002000000000000000000000000000000000000000000000000000057
:4016000000000000000000000000000000000000C0021400D4020000D4020000D4021900F00218000000000000000000000000000000020000000015000000040F070100FD
:4016400000010100010000000000000000000000000000000000000000000000000000000000000000000000000000002C9101002CD102002CC103002CB1040000000000D9
:4016800000000000000000000A000A000A000A000000000000000000170008030C03140300001803000000001C030000000000003C0000000000000034030000000000000D
:4016C00000000000000000003C03400300000000000000004C0300000000000000000000000000000000000000000000000000000000000000000000000000000000000019
:401700003328045043797072657373001400000041A000FF3328400000000000000004500C00000042A000FF000033280C00000043A0332800003328332804500000000092
:401740000101000000020000000000000000001B00000000000000000000000000000000000000000000000000000000040AC8FF080A01FF32010A0004460100041E0100B8
:401780001800000000000000000000000000000000000000000000000800010158020100040000000C00000000000000000000001000005C00010202080000000000000023
:4017C0001400000041A000FF332860000000000000000450000000000000000000000000000000000000000000000000000000003328045000000000000001000000000036
:401800000000000000000000040AC8FF080A01FF32010A00045A0100041E010018000000000000000000000000000000000000000000000008000101580201000400000081
:401840000C000000000000000000000010000052010102021800000000000000000000000000000000000000000000000000000000000000000000000000000000000000DC
:401880000000000000000000000000000000000000000000000000000000000000000000000000000000000000000000000000000000000000000000000000000000000028
:4018C00000000000000000000000000000000000000000000000000000000000000000000000000000000000000000000000000000000000000000000000000000000000E8
:4019000010B5044B83F30888034A044B1A6000F03FF8C046003000206588EDAC3800034010B5064C2378002B07D1054B002B02D0044800E000BF0123237010BD0001002067
:4019400000000000A81B0000084B10B5002B03D00749084800E000BF07480368002B00D110BD064B002BFBD09847F9E70000000004010020A81B0000980000200000000026
:4019800010B500F0E5F803680C2B00D1FEE7FEE7F8B500250E490F4B01394A1C14D000221F685C689E68A018B24203D0B858A0500432F8E70200DE68141AA64201D020C239
:4019C000FAE710330139E8E700F0C8F8FEE7C04601000000D01B00000122F8B5384C394D2368394E93432360002338489A002900032B00D8B15801338150232BF6D172B637
:401A00000023334A07261360324A334D13601222324B1A6000F095F82B68314AB3432B60304B31491B780700DBB213602F4A1368B34313602E4B0A6818787F239A43034097
:401A400013430B60322000F073F805222B683220B34313432B6000F06BF806222B683800B34313432B6000F070F8BE229E21214BD2011A60204B214AC9011A60204A116053
:401A8000BC21204A89011A601F4A11601F4A20491A60C02292000A601E4919601E490A601E4A1A6040221E4B1A601E4B1A68002A00D11A600122236813432360F8BDC0465D
:401AC000000010408119000000140000000000200001024008010440080F0340300010400C0F03407DF3FF0F180F0340100F034064F3FF0F100201400000014004FF00803A
:401B00000C02014003FF00800802014002FF00800402014001FF00800002014000FF00802800034090000020FEE70000000000000230800803D00138FDD1C046C046C046D9
:401B40007047EFF3108072B6704780F310887047014B18687047C046FC0000200E4B70B500251E000D4CE41AA410A54204D0AB00F35898470135F8E700F018F8084B00250D
:401B80001E00084CE41AA410A54204D0AB00F35898470135F8E770BDB81B0000B81B0000B81B0000C01B000000000000F8B5C046F8BC08BC9E46704749190000D9190000C1
:401BC000F8B5C046F8BC08BC9E46704721190000E01B00009800002068000000200000000000000000000000000000000000000000000000000000000000000000000000AA
:401C000000000000000000000000000000000000000000000000000000000000000000000000000000000000000000000000000000000000000000000000000000000000A4
:401C4000000000009C0000200000000000000000000000000000000000000000000000000000000000000000000000000000000000000000000000000000000000000000A8
:401C80000000000000000000000000000000000000000000000000000000000000000000000000000000000000000000000000000000000000000000000000000000000024
:401CC00000000000000000000000000000000000000000000000000000000000000000000000000000000000000000000000000000000000000000000000000000000000E4
:401D000000000000000000000000000000000000000000000000000000000000000000000000000000000000000000000000000000000000000000000000000000000000A3
:401D40000000000000000000000000000000000000000000000000000000000000000000000000000000000000000000000000000000000000000000000000000000000063
:405400000030002001590000617000006170000000000000000000000000000000000000000000000000000000000000000000000000000000000000000000000000000020
:40544000000000000000000000000000000000000000000000000000000000000000000000000000000000000000000000000000000000000000000000000000000000002C
:4054800000000000000000000000000000000000000000000000000000000000000000000000000000000000000000000000000000000000000000000000000000000000EC
:4054C0000000000000000000000000000000000000000000000000000000000000000000FF090034626E0200B11100210000000000000000000000000000000000000000BB
:405500005943001401200004C82B00000000020000020C140000000000000000000000000C02140020020C002C020C00380219005402180000000000000000000000000034
:4055400001010200000000140003070000040100000101000100000000000000000000002C91010204D10200E1C003000000000000000000000000000000000000000000C6
:405580000000000000000000000000000000000000000000000000000000000000000000000000000000000013006C027002780200007C020000000080020000000000007E
:4055C000000000000000000098020000000000000000000000000000A002A4020000000000000000B002000000000000000000000000000000000000000000000000000017
:4056000000000000000000000000000000000000C0021400D4020000D4020000D4021900F00218000000000000000000000000000000020000000015000000040F040100C0
:4056400000010100010000000000000000000000000000000000000000000000000000000000000000000000000000002C9101002CD102002CC103002CB104000000000099
:4056800000000000000000000A000A000A000A000000000000000000170008030C03140300001803000000001C030000000000003C000000000000003403000000000000CD
:4056C00000000000000000003C03400300000000000000004C03000000000000000000000000000000000000000000000000000000000000000000000000000000000000D9
:405700003328045043797072657373001400000041A000FF3328400000000000000004500C00000042A000FF000033280C00000043A0332800003328332804500000000052
:405740000101000000020000000000000000001B00000000000000000000000000000000000000000000000000000000040AC8FF080A010532010A0004460100041E010072
:405780001800000000000000000000000000000000000000000000000800010158020100040000000C00000000000000000000001000005C000102020800000000000000E3
:4057C0001400000041A000FF3328600000000000000004500000000000000000000000000000000000000000000000000000000033280450000000000000010000000000F6
:405800000000000000000000040AC8FF080A01FF32010A00045A0100041E010018000000000000000000000000000000000000000000000008000101580201000400000041
:405840000C0000000000000000000000100000520101020218000000000000000000000000000000000000000000000000000000000000000000000000000000000000009C
:4058800000000000000000000000000000000000000000000000000000000000000000000000000000000000000000000000000000000000000000000000000000000000E8
:4058C00000000000000000000000000000000000000000000000000000000000000000000000000000000000000000000000000000000000000000000000000000000000A8
:4059000010B5044B83F30888034A044B1A6002F0E7F8C046003000206588EDAC3800034010B5064C2378002B07D1054B002B02D0044800E000BF0123237010BDD8040020A2
:4059400000000000C4770100084B10B5002B03D00749084800E000BF07480368002B00D110BD064B002BFBD09847F9E700000000DC040020C4770100980000200000000019
:40598000F0B5CB4ACB4B8DB0CB4E9A4201D8012300E00223C94C3370200010F0D3FE071E54D12300AA331A782300AB331B781B0213434BD001000FF0F1FCC14DC3782B706B
:4059C0002300AC331A782300AD331B781B0213433CD0012138000FF0E1FCC378AB702300AE331A782300AF331B781B0213432DD01B19DB786B70CD235B00E25C9C23FF33F8
:405A0000E35C1B02134321D0390001200FF0C6FCC3786B72CE235B00E25C9E23FF33E35C1B02134312D0012108000FF0B7FCC378EB72CF235B00E25CA023FF33E35C1B022F
:405A4000134303D01B19DB78AB720AE03378012B01D19C4801E0FF20400010F063FE06F05FFE40250022052001212026964BDA611D62586259634919D9629A63DD63186473
:405A80009964924B92491B68924B1B68924BCD583543CD50914DE8583043E8501300FF2507918F49143E32005A4301338A18957208001F2BF7D18B4A0023110068310B7012
:405AC0000C25FF2103922A005A4382187F32FF32013311701F2BF6D10021039B012268335970039B80256A33197080237E4E9B0033607E487E4B2D068363C36C1343C36417
:405B0000C36A2B43C36242647A4B7B4A7B4D1A607B4B7C4A995059517B4D7C495D507C490D680596ADB20490086880B28542FBD00526774800689E50802685B276029F5852
:405B40003742FCD0096889B28D4202D980256D022943081A0021039D6C352880995062B66C4B6D481D680A00854206D19A686B4D596849194E424E419219002518605D6043
:405B80009A600122664B32201A70664B1D7010F049FFE31CDA7F231DDB7F634E1B021343042B01D8357002E0043B9B103370631CDA7FA31CDB7F5D491B0213430433E31847
:405BC0000B60E31DDA7F23000833DB7F06911B021343574D042B04D80023564A2B70138021E0043B9B102B70631DDA7FA31DDB7F1B0213430433504AE318136023002A33D4
:405C00001A7823002B331B781B021343494A1380230028331A78230029331B781B021343464AE31813602300C2331A78444B3C331A702300DA331A782300DB331B781B02BD
:405C4000134312D0072100200FF0A8FB417807004B1E99410020C9B211F0E8FAB97800204B1E9941C9B211F0EDFA2300FF33DA7C1B7D1B021343042B01D8002301E0043B89
:405C80009B1073702300FF339A7C597C12020A4304320699A2184A601A7ED97D12020A432449042A4ED800236B704B8061E0C046E0540000FF7F00003E02002000550000F5
:405CC000300D0020FF010000FC000140E80F00F000000A40EC0F00F06808000000000B40F40400207407002080E100E0000003406588EDAC64000020A962010018D00000FE
:405D0000001000E010D00000BF5D000014D000003C00034000280020EFBEADDEF4CFFC3FE8020020EA080020F80B0020FC0B0020040C0020100C0020080C0020140C002050
:405D4000FC150020043A92106A709A7D587D120202430432D248A21842601A7FD87E120202434A805A7E9B7E1B021343CD4AE3185360D9235B00E25CCB4BAC331A70E523F0
:405D80005B00E25CCC23FF33E35C1B02134312D0072101200FF002FB417804004B1E99410120C9B211F042FAA17801204B1E9941C9B211F047FA0025BC4CBD4ABD4B2100E0
:405DC00000201A6010F0FCFC2100012010F0F8FCB94AC221B94B002010F0C0FB049B28009D6310F073FD012010F070FDFA2010F00DFE1422B24B0AAC1A805223B14A290010
:405E00001380B14A200013801322B04B1A80B04B113A1A70AF4B04321D7011F040FB19220421200001F0E0FF2378552B0CD16378AA2B09D1A378552B06D1E378AA2B03D146
:405E40000122A54B4D331A70A44F15222021380001F0CAFFA24E16222021300001F0C4FF06220021200011F01AFB17220221200001F0BAFFD023984D1B0106220021200059
:405E80006B6011F00CFB18220621200001F0ACFF23889448EB8663886B8323795A1E93412A003832137063795A1E93412B7702F037F8E98E8C4802F033F8698B8B4802F016
:405EC0002FF82B004C331978894802F029F83900884802F025F84D353100874802F020F82B78864E864D874F002B57D1864B1C78002C3BD10721854B854A3360854B1C6002
:405F0000854B1A60854B864A1360864A1160864A06391460854A1160854A13600422854B1C60854B1A608023059A5B01136010F040FCC023814A11680B43136010F03DFC94
:405F40007F4A804B1A6004227F4B1C607F4B1C607F4B1C607F4B1C607F4B1A602C60039B2A6870331A800122674B1A70802280210F20336812061343784A490133601160AE
:405F80003B688343053803433B60754B754870331B882B60744B1860116020E080220F21059B52011A603B6800248B43E4213B602868039BC90001407033198033682100C0
:405FC0005B005B083360694B2C6020201A6022000DF0CCFE2200210020000DF0C7FE0022062133200DF0C2FE0022062135200DF0BDFE0022062114200DF0B8FE012206211F
:4060000031200DF0B3FE0022062122200DF0AEFE0022062137200DF0A9FE0022062151200DF0A4FE0022062150200DF09FFE504B6422E621002010F091FA4E4A1368170040
:40604000002B00D0C7E30A221900BA604A4A7A60FA180433D160282BFAD1273B3B60474B474C484AE360E361E362E363E364E365E3660121444B45480EF068F8002800D1E3
:406080008AE00A4C424D2100424A6031280001F047FF210096226F31280001F041FF84E0080C0020140C0020FC150020C8770100415A0100D0080020EE0200009966010055
:4060C000380200203A0200203C02002040020020700800205C1300204402002092020020B20200208678010099780100BB780100DD780100F87801000B790100000007403D
:40610000880F074000020240E20700200B00000201000A00400007404800074007000080000307400403074010030740440007400002074004020740500007400CE400E005
:4061400065C0000070000020880E0740C80E0740480F0740080F0740C80F074000E100E074070020D5820000EC08002080E200E0C1DF0000C8150020DDD90000A5820000D3
:40618000F8110020357500006C120020301300201E7901006502000001232360D14BFC342366D14B6366D14BE365D14BD14AD24C9A60D24A0121DA60D14A34201A61D14B7A
:4061C000002263670DF0D2FD0122022113200DF0CDFD0122022136200DF0C8FD1022CA4BC0251A61D968C94AC9480A40802189000A43F939FF39DA600161C268AA43403DE2
:406200002A43C26040221A61D868C24AC24D0240802080010243DA60C04AC14BC1481A600223C14A136005601160039404930024E6B2002C05D1BD4B1B7C002B01D10134E6
:406240002600300010F0AAFB70236343B84D049AED1842352B7813420ED0B64A0321300010F088FC0F2807D02B78049A93432B7080232A7813432B70AF4A079BAF4D9B589D
:406280008022520213421AD10122AD4EC820AB591343AB51AB599340D340AB5106F039FA10F087FA8022A44B5202EB58134204D18022AB5912061343AB5110F07EFA0025BD
:4062C000039B01349D67022CB2D19E4B1A78AA4200D10CE2954C1D7023681E2B28D9039A7C321678AE420ED1237C022B1BD001359548157001F014FE3300320006212800FF
:4063000010F022FC14E03C2B12D9012E10D1237C022B08D08D4801F003FE2B002A000521300010F011FC6A46039B127C7C331A702368092B04D9237C002B01D103332374AC
:40634000257DEDB2012D25D1412001F073FC0600402001F06FFC7E4B984211D87D4B9E420ED9724B2E331A78002A13D131001D70794801F0D5FD0B215D4801F08DFB09E0E7
:406380006A4B2E331A78002A04D0002273481A7001F0C6FD654B30331D78EDB2012D25D1022001F047FC0600280001F043FC684B984211D8674B9E420ED95C4B4A331A7858
:4063C000002A13D11D700B21494801F065FB3100634801F0A5FD09E0544B4A331A78002A04D000225F481A7001F09AFD4F4A2A321378002B0BD0238D01339BB22385042B87
:4064000005D900201070208501000EF00BFA237C022B09D1012002F08FF8444B47331878002801D102F088F84F4B1B78002B26D000252E00039B5B6F5C1920680693002829
:4064400015D00422494911F095F900280DD1484B1B78042B06D9454B1B793D2B05D16368444800E06368984701260835E2E7002E02D1414801F054FD00223B4B1A702B4CD1
:40648000637C002B00D185E0237C022B00D081E0E37C002B7AD1394B01210A930A2309AD0AAA08002B8010F0AFFB002802D0344801F036FD0121080010F0C8FB002802D012
:4064C000304801F02DFD01212A00080010F0CCFB002301211A00080010F036FB2A4801F01FFD55E0B97400002D740000DD700000FC0700203D72000074070020C9710000E0
:40650000857000009C00002000030440FFFCFFFF00010440FFCFFFFFC98400003D7B0000440000204C00002000E100E044020020FC15002069F200001C06000000000A4065
:40654000DC070000D40B002043790100577901003B130000F60200006B790100867901009A790100B5790100B908002078080020B80800207D080020C97901002C91010036
:40658000DB790100FC790100227A010001F060FF00236374237C9A4D022B11D1994B1B78002B0DD10126984B9848DE611E64483008F0F8FD0C21280001F06EFA914B1E70EC
:4065C000237C032B1BD1039E7D363478002C16D18F4801F0A5FC200002F0F2FD2100200009F09EFB884B8948DC611C64483008F0D9FD0D21280001F04FFA01233370854BC4
:4066000048331B78002B18D1824B47331B78002B13D1804B2C331B78002B0ED17D4B2B331B78002B09D17B4B49331B78002B04D1784B2D331B78002B04D00A21280001F0FC
:406640002BFA03E00A21280001F0CEF93B680226002B05D170499A220A3128E0013E46D30025BB689D42F9D2AB1C9B00FB185C68002C00D1B5E0A3699E4200D0B1E07B683E
:40668000984723686060C01AE368A060984200D2A7E02369002B01D060699847237F002B0DD03B68002B06D15E225B491D315B4801F036FC1BE07B689847206091E03A6851
:4066C000002A03D1544969322E31F0E7B9688B420DD253489A1C92008218101D5268944202D00133DBB2F2E70023036079E0494C237C022B05D1444807F05EFE494807F03E
:406700005BFE2368142B19D1474B1E78002E15D101F0CAFB05000100444801F001FCD0222B0612011343636032000D23009629003F4801F0F5FB01233B4A13702268312AF1
:4067400000D874E5334B91331B78002B00D16EE5322A08D18023059A5B0113600022110010000DF003FB10F0D1F8002800D15EE510F01FF82F4B04991A00423212780500F0
:406780000A4201D000241DE0B2331B78049A1342F8D110F0DFF80028F4D0039B6A331B78002B21D110F005F80421234B234A1B889BB21360224A13680B43136030BF0FF0C3
:4067C000FCFF012428000FF0F8FF002C00D12EE510F0DEF82BE501211A48494201F0A0FB3DE40135EDB23CE7174B184A1B6C12889BB29342D6D0322005F08BFFD2E7C04674
:40680000FC070020F1070020F00100209C010020447A010044020020487801001E790100C815002014020020F20700205B7A01007C7A0100FC15002052F2FF0F04000340EE
:4068400010ED00E09E7A010000000340F4070020F0B50500002487B00200B949B94801F05FFB02AB9E1C9F1DB54A2B78049434703C800092722B03D0B3486C2B0FD100E05E
:4068800001246B78A81C002205A9019310F09EFE059B04901B780500002B03D0AB4801F03FFBC2E301984138392800D9BDE310F057FF91019C01A101B201C201D30102021E
:4068C00012021D022D0232023802480253025A027102BC0381028602B802DE02E402F40237036603A603BC03BC03BC03BC03BC03BC033A003F00440058005D0062006C0014
:4069000073007B00840093009800A900BA00BC03BC03BC03CA00DD00F000FB001E0123013A0163018C013900200008F0CDFB37E03900200008F084FB32E0854B24011C19DD
:406940006568E068012304AA0421A847041E05D00099FD2205317F4801F0E2FA21007E484AE33900200008F025FB21E03900200008F0D8FA14E03100200008F0A9FA009981
:40698000020033781A31754848E23100200008F075FA3278010005E03900200008F028FA01003A886E483EE33900200008F0D8F93A88010013006B4830E2552D07D0562D0A
:4069C00005D0572D03D06848582D00D067E72900200008F0A7F94EE23100200008F078F9BEE15B4B24011C19A568E068012332001221A847041E00D112E3C122009952002B
:406A00002C310AE3524B24011C196568E068012304AA1221A847041E00D1EBE290220099FF323F31E3E24A4B24011C19A568E068012332001321A847041E00D1F0E2009980
:406A40009C22523123E002ABDA1C414B24011C191570E068656801231321A847041E00D1C8E2D322009952006731C0E200233848240103AD001984682B702A000133152105
:406A8000C068A047041E4AD0B42200997C31FF32C3E2012D03D03548002D00D0FFE62900200008F0D9F8E6E102ABDD1C002303AE2B703370264B24011C19A3682A00009315
:406AC000E36814210193009C01230198A047E922041E08D1009C0123320015210198A047041E6CD0EA22224952000E3189E1A9B2200008F061F8BEE1002303AD2B70144B8C
:406B000024011C19A768E06801232A001721B847041E04D0FC22164952001F317DE22B78DB0933707CE2012D03D01248002D00D0B5E62900200008F001F82A00010071E278
:406B40008C7B0100C67D0100D87D0100F17D0100448E01001E7901002C7E0100647E01000F7E01003E7E0100897E0100E97E01000C7C01003C7F010002ABDD1C002303AE91
:406B80002B703370CD4B24011C19A3682A000093E36816210193009C01230198A047041E01D0C74A08E0009C0123320017210198A047041E03D0C34AC349313121E1FE22DF
:406BC0003378D2011B02134021E1A9B2200007F067FF50E1012D03D0BC48002D00D05EE62900200007F03EFF45E1E9B2200007F01BFF40E1B14B24011C19A568E0680123F7
:406C000032001921A847041E00D109E29822AE499200423101E2A94B24011C19A568E068012332001B21A847041E00D1F8E1A649A74A5D31F1E1A14B24011C1903AA1570DA
:406C4000E068656801231B21A847041E00D1D1E19D49A04A7631CAE102ABDD1C002303AE2B703370954B24011C19A3682A000093E3681C210193009C01230198A047041EB1
:406C800001D0954A09E0009C012332001D210198A047041E07D0A2229200904990480F3101F03EF904E033782A781B0213433B8021003A88B6E1814B24011C19A568E068CF
:406CC000012332001E21A847041E00D1A8E18349844A1D31A1E1012D03D08348002D00D0DDE52900200007F081FEC4E0734B24011C19A568E068012332002321A847041E24
:406D000000D18DE17549794A303186E1E9B2200007F04EFEAFE03900200007F0FFFD010079E0664B24011C19A568E068012332002421A847041E00D172E168496C4A52317E
:406D40006BE1012D03D06B48002D00D0A7E52900200007F0C5FD8EE03100200007F094FD010032785EE1554B24011C19A568E06802233A002221A847041E06D0C0225749FD
:406D800092006831564801F0CBF83A8821001300594843E0494B24011C19A568E068012332002821A847041E00D139E14B49534A7D3132E1E9B2200007F04AFD5BE002ABEB
:406DC000DD1C002303AE2B7033703C4B24011C19A3682A000093E36825210193009C01230198A047041E01D0454A08E0009C0123320026210198A047041E06D0414A424949
:406E00001331374801F08CF804E033781B022A7813433B8021003A883C48130001F080F803E102ABDA1C254B24011C19E768290A03AE157031706568012325213800A847D0
:406E4000041E03D03049324A2C31D0E02621012332003800A8472100051E00D1CBE02A492C4A2C311E4801F05BF82900C3E0E9B2200007F0D1FC0100BDE0104B24011C1909
:406E8000A568E068012332002721A847041E00D1C6E01D49204A4531BFE0084B24011C19A568E068012332001821A847041E00D1B6E01549194A5331AFE0C046448E0100BC
:406EC00017020000190200000C7C0100677F01006D02000079020000860200008C7C01001E79010096020000987F0100AF020000DB020000C47F0100F37F01000D030000D6
:406F0000270300002A0300000C7D0100147F01003B0300003E0300005503000047020000EBB20093102B03D94149424A6B312EE0002303AF3B70404B24011C19E568A668F5
:406F400001233A002A212800B047061E03D038493A4A6B3133E00F223B780099934311401943397064682A2101233A002800A0473100041E3FD02E49314A6B3137E0EBB2CD
:406F80000093102B09D9D7222E49920008312E4800F0C6FF022149422DE0002303AF3B70254B24011C19E568A66801233A002A212800B047061E07D02249244A083122481C
:406FC00000F0AEFF310016E00F223978009B11401B011943397064682A2101233A002800A0473100041E06D01649194A0831164800F096FF2100174800F092FF15E00E4B04
:4070000024011C19A568E068012332002A21A847041E05D00B49104A24310B4800F080FF210032780D4800F07BFF07B0F0BDC0460C7D01006E030000448E0100750300001B
:40704000790300008C7D01001E7901006303000067030000B67E010086030000CA7E010010B510F0E7F903680C2B00D1FEE7034A034B5A6005F054FBFEE7C0460C3003C09B
:407080000028002010B5002806D1922211495200114800F045FF1BE0A8220368134202D0A63A9343036054220368134202D0533A93430360A8220368134202D1A63A134306
:4070C000036054220368134202D1533A1343036010BDC0462080010008810100F7B544220190002805D0019F593FFF3F002F08D14622334933481A3100F012FF0220404273
:407100005DE00025019C019E5C3C236E093EFF3EAB4206D12A494A221A312A4800F000FF4DE03368002B19D0002131608D4204D17A6C012A07D02A0005E0012D05D17B6DA0
:407140000A00012B07D1290005E07B6E0122012B01D10A0019000220236E984701351036032DDED1019D0027553DFF3D2E00F368002B0CD000233168F360F8B21A000129B9
:4071800003D01900326AF8B2D2B2236E984701371036022FEBD10026EB6A002B0AD000212A6AE962F0B2012A02D02B780A001900236E984701361035022EEDD10020FEBDA4
:4071C000208001000881010010B5041E06D11849F7222C31174800F0A3FE27E007290DD00A291ED0062921D10368980A9B0502D500280BD108E0800218D10FE00268930AB8
:40720000920508D5002B01D105F0F4FF22680A4B134023600AE0002B08D1012006F018F804E00368DB0A01D105F0E4FF10BDC0462080010008810100FFFDFFFF10B5021E70
:4072400006D11749D1324431164800F069FE26E0881F052823D810F079FA031122222020136819061BD5802189000B4217D1194311609B0A0120002B11D10BE01068430695
:407280000DD580239B00184209D10343800A1360800204D105F0DCFF01E005F0ABFF10BD208001000881010073B5051E07D1554988225A31544800F033FE02209BE00369DC
:4072C000002B00D098472968504800F029FE1F2301212C6808009840DAB20126044202D0082A04D835E0013B002BF3D133E03400DBB29C406B685B0A5B02234075D18020F5
:407300008001204006D018000CF0C6FD30000CF0C3FD72E0E30405D505223D4B11000093062307E0230508D53A4B022000930A231A0019000CF01EFE5FE0630502D50CF02C
:40734000E5FD5AE0A305FAD4334800F0E9FD012051E0072A49D82B79A34246D040209C43204003D000200CF09DFE18E01023012123400FD10426264004D0012118000CF094
:4073800063FE09E0E3070AD5310030000CF05CFE310030000CF028FE204800F023FE230603D501200CF07EFE19E0A30602D5012108000FE00826264004D0012108000CF04D
:4073C00043FE09E0A3070AD5310001200CF03CFE310001200CF008FE104800F003FE21002B680F486B6000F09BFD29680D4800F097FD002005E0404203E06C6021000A4844
:40740000F1E776BD20800100088101002A810100397A0000697A00008C810100F81100204181010062810100A0810100F7B504000D002B22002805D00600FC36336E002BC9
:4074400006D12F221A491B486F3100F069FD2EE0002909D1243000F00FFF201D00F00CFF336E2A00290020E003000700143334370193012910D0243000F0FEFE201D00F0D2
:40748000FBFE380000F0F8FE019800F0F5FE0022336E1100022009E0380000F0EDFE019800F0EAFE00221100336E28009847F7BD208001000881010070B5150004001522A7
:4074C000022805D81622012902D8012D06D9172216491748093100F023FD26E0002808D10134214051200FF007F929005020214019E0012806D1014022200FF0FDF829005B
:4075000021400FE0012631400C00512035400FF0F3F8290050200FF0EFF8210022200FF0EBF8290037200FF0E7F870BDA08001001E790100F0B5070087B0002809D1E62292
:40754000534952001F31534800F0EAFC022040429CE003000500743B0193E4330293029C5433303D0393200000F05CFB002824D023692A6801332361002A06D0A2689342E5
:407580001BD100232361013304E0E1688B4214D101232261EB6004ABDE1D3100200000F037FE002802D1019800F012FE3378002B03D00199200000F0DDFD039B1C3410351F
:4075C0009C42D0D13E003C003D00703E3834280000F028FB002824D02B69326801332B61002A06D0AA6893421BD100232B61013304E0E9688B4214D101232A61F36004ABA8
:40760000D91D280000F004FE002802D1019800F0DFFD04ABDB79002B03D00199280000F0A9FD1C351036A542D1D13D000126503D200000F0F7FA002822D023692A68013303
:407640002361002A05D0A268934219D10023236103E0E1688B4213D1226104ABDF1DEE603900200000F0D4FD002802D1019800F0AFFD3B78002B03D00199200000F07AFDA2
:40768000029B1C3410359C42D2D1002007B0F0BDA08001000881010010B50E4A0E4913680E485B005B08136000230B600C490B6004680C49214001600B490B600B490B6023
:4076C00010210B4B19708021136809060B43136010BDC0460000064068000640600006406C000640FF5CFFFF880F0640C80F0640DC16002070B5234E234D3478002C36D125
:40770000224A234B2C601A60224B234A1360234A1460234A1460234A13608022224B12011C60224B1A600FF044F8C023204A1B0611680B4313600FF040F81E4A1E4B1A6090
:4077400010221E4B1C601E4B1C601E4B1C601E4B1C601E4B1C601E4B1C601E4B1A701E4B1C801E4B1C601E4B1C600123337080222B681206134380222B601A4B12011A602E
:4077800070BDC046F807002000000640770800806000064007010080000306400403064010030640000206400402064080E100E008E400E0F1C000006C000020C80E06401B
:4077C000880E0640480F0640080F0640C80F0640880F0640DC160020F0080020FC0800200409002000E100E01F2204490B681340082BFBD0024B18607047C0460802074058
:4078000040020740F7B501224E4C4F4D23684F4E9343236000234E489A002900032B00D8B15801338150232BF6D172B6FF21494A193B1360484A090111600125474A072700
:4078400013600622464B474E1D60474B1A60474B1B32FF321A60464B1B3A1D60454BFF3A1A60454B0C321D60444B1A600EF0A1FF01903368424ABB433360424B42491B78A8
:40788000DBB21360414A1368BB431360404B0A6818787F239A43034013430B6032200EF07FFF052233683220BB43134333600EF077FF06223368BB431343336001980EF0C3
:4078C0007CFFBE229E21334BD2011A60324B334AC9011A60324A1160BC21324A89011A60314A11609021314A09011A60304A1160304A31491A60C02292000A602F49196057
:407900002F490A6088212F4A89011A602E4A1160E8212E4A49011A602D4A11602D4A1A6040222D4B1A602D4B3C3A1A602C4B013A1A602C4B1A68002A00D11A6023681D43F7
:407940002560F7BD0000104061700000005400000000002000000240000102400002024008000440080F0340000104400801044000020440080204401802044030001040C6
:407980000C0F03407DF3FF0F180F0340100F034064F3FF0F040301400000014041FF00800003014040FF00801402014005FF00800802014002FF00800402014001FF008000
:4079C0000002014000FF00801002014004FF00800C02014003FF00802800034008010140040101409000002010B5041E08D19F220F49520030310F4800F092FA200015E0FF
:407A0000026813001F2904D8012310008B4098430300236000209A4208D0E368834201D0200098472000FFF73FFC012010BDC046A080010008810100084810B50300FC335A
:407A40005B6E002B01D002219847054800F068FA04480C210430FFF7C7FF10BDF8110020C0810100F8070020084810B50300FC335B6E002B01D002219847054800F050FA4B
:407A800004480B210430FFF7AFFF10BDF8110020E8810100F807002010B5041E07D10E49C12249310D4800F03BFA200013E0026813001F2902D801238B4013432360002070
:407AC0009A4208D0A368834201D0200098472000FFF7EAFB012010BDA080010008810100F8B500250E490F4B01394A1C14D000221F685C689E68A018B24203D0B858A050A5
:407B00000432F8E70200DE68141AA64201D020C2FAE710330139E8E70FF092FCFDF730FF01000000009A0100031E04D0036840681B1A581E83411800704700000822044BE7
:407B40001969114203D01A61024B073ADA60704700010440F001002010B50400B2B0C822124968460FF092FC114812496043091B0FF06EFB104A83B20020934214D80F4AB6
:407B800093420ED902006C465100645A9C4204D369444988994200D290B20132632AF2D102E0002B00D0642032B010BD14820100204E000088130000346B0000EA03000065
:407BC000F0B58BB0112205000E0005A8144902AF0FF05CFC0B22002138000FF060FC09243B192800310001930FF0ACFD0C2202AB9B185B5C2800E35531000FF01DFD051E44
:407C000002D0013CECD208E0019C0134631E1878002802D0FFF7E8FDF7E70BB0F0BDC04654830100031E02D04369581E8341180070470000F7B5062106000EF04BFD1420B8
:407C400004F067FD002108000CF0CCF81A4B0400FE33188B002183B2300001930EF03AFD0023164AD9B200910C2159435518AF7ABC466046170000280FD0515CB14210D1F2
:407C80006B6828890521181A019B63431C0A001968600FF0D1FC288107E001238E54AB7203E00133082BDDD100930C23009A5343FF183889FEBDC0466013002010080020D2
:407CC000F0B5140080220500C3B001915200002102A80FF0E4FB019A290002A80FF0D6FB0022130002A9895C01325B18DBB2FF2AF8D15533DB4302A952181370354B6033AB
:407D00001B78002B01D1002062E0334B1A0048321288A242F7D81A004A321288A24204D21A004C321288A242EDD12C4A9442EAD802D10023399344E0FF225200944240D1E6
:407D40004E331B78264D012B38D00026AB681A0A2B7B1B061343B34231D06A681002000C0002421CFF32D1188C461E498C4526D82968090A0F002979090639438A421ED8C4
:407D80008C451CD929789446B2420DD00133FF331B189A4205D017780132BC466644F6B2F7E77642F3B29C460026614507D180239B00C0180EF0C6FCB04200D1EE69013669
:407DC000399602A920000BF087FF00289BD1019843B0F0BD10080020F0010020FF010000C0FF0100FFFF010070B516008022C0B005000C005200002168460FF050FB154B6A
:407E000060331B78002B01D1002020E0124B50331B88B342F8D2114B9E42F5D880223102520068460FF032FB00228021130049006846805C01321B18DBB28A42F8D1AA2BAD
:407E4000E2D12200694628000FF020FB200040B070BDC04610080020F0010020FF01000073B5062406000D002200002168460FF016FB1C200B4A012113007043543318181A
:407E80000177694645838C32127868460A711A7F4A71DA8E5B8B0A804B8018222100FFF70FFF73BDF001002010B5062124200EF011FC002108000BF095FF154A0021FE3228
:407EC000138B434324201C0A0EF004FC0120322C1CD9A3B21A00C03A0018642A16D9D43A0130642A12D90B4A01309A18642A0DD9094A01309A18642A08D9084A00209B1856
:407F000064229BB29A4240410723181A10BDC0466013002093FDFFFFADFCFFFFB1FBFFFF0FB4F0B587B00C9B0120002B52D00F270DAA0092187800284BD05E1C252844D18E
:407F40005C789E1C632C04D1009B1A1D009218683BE0642C0CD1009B1C681A1D0092002C03DA2D20FFF740FC64420A2120001BE0732C0BD1009B1A1D1C6800920134631E2E
:407F80001878002823D0FFF72FFCF7E76F2C04D1009B08211A1D009205E0782C07D11021009B1A1D00921868FFF70AFE0FE0002C0FD001AD11220A4928000FF067FA2309C4
:407FC000E85C3C40FFF710FC285DFFF70DFC3300B0E7002007B0F0BC08BC04B01847C04654830100F7B5041E08D18E225D49520048315D48FFF794FF02200AE00368002BA1
:4080000009D11E225749FF3248315848FFF788FF01204042A4E007000300E4373D0044330093009EF43301932800FFF7FBFD00283AD13000FFF778FD002835D1019B1C35D4
:4080400010369D42F0D12000AC30FFF7EBFD00282AD120002430FFF767FD002824D12000C830FFF7DFFD00281ED120003430FFF75BFD002818D120007430FFF7D3FD00289C
:4080800012D1201DFFF750FD00280DD120009030FFF7C8FD002807D120001430FFF744FD002801D100205BE000263148FFF738FF009D3800FFF7B6FD00280AD12800FFF761
:4080C00033FD002803D0022E01D00123EB606B682B6001361C371035032EEAD12700260024373D00AC363000FFF79CFD002808D12800FFF719FD002801D00123EB606B68D6
:408100002B60009B10351C369D42ECD12600251D74363000FFF786FD002808D12800FFF703FD002801D00123EB606B682B6010351C36BD42EDD12300FC33DB6D002BB1D0AC
:4081400020005930FF30984704000020844207D050220449FF3248310448FFF7E1FE2000FEBDC04694820100088101001E7901006583010070B5492204000D00002810D051
:40818000FFF750FD002809D0002323616361A360E3606360A369002B00D09847002D04D14E22084908485D3108E02800FFF71AFF002805D05022034904485D31FFF7B0FE28
:4081C00070BDC04694820100088101001E79010010B5002804D10B492A2269310A480DE00300FC33DB6D002B0AD05930FF309847002805D02E22034904486931FFF790FEBF
:4082000010BDC04694820100088101001E79010070B505000E1E08D1022414491C2277311348FFF77DFE64421EE00068002816D00368002B15D09847041E06D00B491E22CE
:4082400077310C48FFF76CFE0EE06B68013BDA1C00D86B606A6853425341337004E0022400E004246442E9E7200070BD94820100088101001E79010010B5002808D107494A
:408280001A2207310648FFF74BFE0220404203E0002303604360180010BDC046148301000881010010B5002808D1084911221B310748FFF735FE0220404205E008380368BE
:4082C0005A4253410360002010BDC0461483010008810100F8B5314B1A681E00530757D52F4B00251B68DB0601D02E4B1D68D82334689B001C4003D0284A0025136035E035
:408300000D2D1CD1284D6F6E002F16D02022210026480FF0C4F83A00254924480FF0B6F83A00210022480FF0BAF80122214B6C6628331F701F4B29331A701F4813E00A2DC0
:4083400024D0082D12D1184A536E002B1ED0013B5366184A2800D3181C72FFF7E1FD2020FFF7DEFD2800FFF7DBFD0FE00E494B6E1E2B05D80F4AD218013315724B6605E029
:408380001F2B03D100220B4B0833DA770423336080220A4B52011A60F8BDC046C00F07400803074040030740100800207808002098080020900800208083010080E200E0DA
:4083C000214B10B51A0019005432107DE631002816D00978002904D11900EE310978002907D01A005432D17C012927D00121D17423E0D17C022921D00221D17401391CE02A
:408400000878012804D01800EE300478012C08D11A005432D17C032910D00321D17402390BE00978002909D10178C9B2002905D1D07C002802D0D174013151745433D97CAA
:408440000248FFF76DFD10BDF00100208583010070B5194986B002AC0B002200283361CB61C21B6838311360684608220FF00EF82200042101200EF0C7FB002802D00F4874
:40848000FFF74EFD0F2101200EF0E0FB002802D00B48FFF745FD6A46042101200EF0E4FB002301211A0008000EF04EFB0548FFF737FD06B070BDC04614830100DB790100FE
:4084C000FC790100A8830100F7B51022164B1969114208D140221969114223D01A610122124B1A631EE01A61104B1E007E3301931C785436002C15D1357DEDB2012D11D183
:40850000200000F0A9FE0A4B070098420AD8019B210034851D70200007F002FC39000548FFF7FEFCF7BDC04600030440F00100209F0F0000CC83010070B5374D04000521FB
:40854000686D0FF0FFF800291CD131200EF0D4F8962004F0DEF8012C08D13020FFF76AFBFFF7FAFA2B005833D88707E02520FFF761FBFFF7F1FA2B005433D88401213120EF
:408580000EF0BAF86B6D1D2B45D91C232A0063435432D318DA8C542A20D92B331E78002E39D1012230001A7000F00AFE3100300007F0B6FB012C07D1A021300006F048F939
:4085C000A021200006F044F91C2363435435ED18EA8C21001148FFF7A3FC1CE0402A1AD82B331978002916D0002521001D700C48FFF796FC280000F043FD290028000CF0C5
:4086000011F9012C07D12900280006F021F92900200006F01DF970BDF0010020E0830100F8830100F7B5204B8200D3581F4C00939A235B004343E3181A002D32FF321578C5
:408640001E00EDB229002C36FF362A00083291421EDA1A002B32FF3237781278974222D20F00327818370192009ABF00BA584D2794464743019A0131BA18674602329200B0
:40868000A21857603278C9B20132D2B23270DCE79A235B00584324182D34FF3423785A425341DB002370F7BDB891010060130020204B8200F0B5D4581F4D2300A0331A6819
:4086C0009A235B004343EB182533FF331B78002B01D100202CE0002906D11F2308251340072B03D8290001E0102500219A220B0052005043104A10184A19934217DA060007
:4087000007002636FF363278FC377F699200D7591A1D920017513278013E0132D2B27270727836789642D4D90133DBB2E4E70120F0BDC046B891010060130020704770479F
:40874000C54BF7B58200D65807000EF0E7FAC34B0190F2580093002A00D11CE2F3589B0511D59A2300205B007B43BD49CA182932FF3210705B583800082198478822A02317
:408780009200DB00F250009BF25880231A420AD0A022D200B350B4337B43B14AD31801222933FF331A70AF4BF3581B0632D5A223DB00F2589A235B00A9497B43D20504D520
:4087C000C9182A31FF3100231EE0CB181A0001202A32FF321070F26D2B33D201D20D03329210D2B2FF331A701A78412A01D941221A709A235B007B43C9180A0000232C3235
:40880000FF322D311370FF310B70C022A2235200DB00F2508024009B2403F358234205D03800FFF7FFFEA023DB00F450009BF3585B0100D488E0A021C90075582B0723D56E
:4088400030232B40102B1FD12533FF337B43844AD2182932FF321078012815D10020107030008024AC300268240322430260A120C00034587C4A224032507C4A38007250CD
:40888000774A0321D3589847754CEB074BD520231D4048D19A20400003007B43E1180B00A1222933FF331D70D200B558704B2B40B3508022A0235201DB00F2503300A433B9
:4088C0001B689B065B0F013B0B71F26D019B8A6094331B78012B02D8664B13408B6078432318597A4906490F5971CAB2197ACD068906ED0EC90F9D71D9712A33FF331B7806
:40890000002B06D1310020180C3060310DF098FD02E03800FFF786FE9A235B007B430621E35838009847A023534ADB00F2509A235B007B43E41800232A34FF342370E022F2
:40894000A2239200DB00F2508024009BE400F35823420AD09A235B007B43414A07219B5838009847A023DB00F4508024009B6402F35823420AD09A235B007B43384A0721B2
:408980009B5838009847A023DB00F4508022009B5201F358134210D0A121C9007058344B03407350A023DB00F2509A235B007B432B4A01219B58380098478024009BE40267
:4089C000F35823420ED000213800FFF771FE002805D1A122D200B158284B0B40B350A023DB00F450009BF3589B0460D59A2252007A431B4900248B1818002930FF30283341
:408A00000470FF33187840B2A0420ADAA120C0003458154B23403350535838000221984740E01B78002B31D0A023802234008025DB005203F2500520C43403F06AFE23687E
:408A40002D032B421CD0A1228021D200B35849030B43B3501AE0C046B89101000C050000601300201C050000771FFFFF88E00000FFEFFFFFEF7FFFFF7F000804FFFFFBFFA9
:408A8000052003F046FE23681D4325609A235B007B434F4AD3182833FF331A001B78013B5BB213708022A0239201DB00F2508024009B6403F358234212D0052003F029FEFE
:408AC00032008021C432136809030B431360A122D200B1583F4B0B40B350A023DB00F450009BF258C0231B021A421ED0D022A0231202DB00F250A1228024D200B35864014F
:408B00002343B3500A2003F004FE3300A4331A68314B1A4201D1314BF4509A235B007B432B4A00219B5838009847009BF358DB0516D59A2300205B007B432549CA182932EF
:408B4000FF3210705B58380005219847A122D200B158234B0B40B350A023224ADB00F250009BF3589B0316D59A2300205B007B431749CA182932FF321070A120C0003458EE
:408B8000174A5B5822403250A0221648D200B050042138009847144BF358002B17D0124BF25820231A4202D0A222D200B3500E4BF25840231A420AD0A222D200B3500B4BF7
:408BC000BA00D358002B02D0042138009847F7BD60130020FFFFEFFF0720000004050000FFFEFDFF000102001C0500001884010010B50120FFF7A4FD10BD10B50020FFF715
:408C00009FFD10BD10B5012002F0AAFA10BD10B5002002F0A5FA10BD10B504000EF07EF8002C01D10A4B00E00A4B020067321278002A0BD118211A6868308A431A6002783B
:408C4000032A03D11A6808390A431A6010BDC04600FF0A4000FF0B40104B8200D358C12210B50824D2009958A1439950012803D10B488158A1438150C0220A20D2009958EA
:408C8000490049089950995801439950985805490140F02000040143995010BDB891010000000A40FFFFFFBF074B8000C35801201A00A4321168054A114204D1A022D200B4
:408CC0009B585B0A18407047B891010007200000F8B5204B80000D00C45805290DD126000222DC363368FF3213433360080003F010FD3268184B13403360A023A1221749ED
:408D0000DB00E150D200A3580B43A350144BAA00D2582300CC331A60052D07D08022C4342368D20213432360002011E00A252700A4373B680B4E334206D0013D0A20EDB2DF
:408D400003F0E7FC002DF2D13B680F203342E5D0F8BDC046B8910100FEFEFFFF000102004C910100072000001B4B8000C358A32010B5C0001C58194A22401A50A2229938A9
:408D8000FF38D200985000290BD11900BC310868134A02400A60A121C9005858114A024012E0012911D11900BC3108680C4A02408020C00102430A60A121C9005858094ABC
:408DC00002408020800002435A50A0220649D2000020995010BDC046B89101007FFEFFFFFF80FFFFFFF9F6FB00060904F7B5A126414B8200D458F600A259404B4049134020
:408E0000A351A0233F4ADB00E2509A22520042438B18050018002830FF309C46037801925BB20F00002B06DA8021374A8901A3580B43A3505DE02300A4331B681A00334BBA
:408E400013400ED00378013B5BB203708020A35940010343A351019B28005B580021984747E062462632FF32137001212800FFF71FFC002804D08022A359D2021343A3510E
:408E8000A122D200A35822490B43A3509A235B001A006A43BA182732FF3212780221012A02D162680A4301E062688A436B43FB1828336260FF33C43422681B78002B03D0DE
:408EC00080231B031A4301E0124B1A4080239B021A439A235B005D437F193B0000212933FF3328371970FF373B78013B5BB23B7022600120FEBDC046B8910100FFEFFFFF86
:408F00006013002098F01400040500000120000088E00000FFFFF7FF0221034B8000C25853688B4353607047B8910100204B70B58200D4580D000DF055FDC022D200A158ED
:408F40001C4B0B4010210B43A350002D0AD08B30037819489B001B5CA15858025B0103430B43A350AA239B00E158144A0A200A40E250E25812490A43E25003F0CAFBAE23A5
:408F800070229B00E250B02260219200A3580B43A350AD239B00E258A0235B011A4205D0AF229200A35840390B43A35070BDC046B89101000FF0FFFF54870100E8A3FFFF45
:408FC00005140000F8B520270A4B8000C4588900094D641863593B420AD128260A20665103F097FB6751300003F093FBA0236351F8BDC046B89101006C080000F8B5070043
:409000000E00140001282DD80021174B82000800D558FFF7D7FF002F03D1144BE25C144B02E0144BE25C144B002E01D15A6000E09A6018211A688A431A60022C04D11A68E2
:4090400008390A431A600134C023DB00E9580B4AA4060A4014438222002E00D08422D2051443EC50F8BDC046B891010036F5FF0F00FF0A4042F5FF0F00FF0B40FFFFFFF35C
:40908000F8B53D4B8200D458C12305000820DB00E2588243E250012D03D13849CA588243CA50C0260021F600A35908005B005B08A351FFF787FF322003F02BFB0A228021C5
:4090C000A920A359090213432D4AA351A35880000B43A35022582B4B2B491A400A432250AA229200A058C02603400B43C021A350083AA35889030B43AC21A350234A890038
:4091000062506058224B760118436050B020083166508000215831432150AD21890060580E00010206D5AF208027800021583F0139432150A159890106D5AF20802680004E
:409140002158760131432150C921890062506258002013436350C021D223D422C9039B00E1509200A3580B43A3500123AB40094A11680B431360F8BDB891010000000A40FB
:4091800004060000FEFBFFFF104000008424240001080000BC08002070B50826064B8000C458064D8900641863590A203343635103F0AFFA665170BDB89101006C080000BF
:4091C000204B820070B5D458D4229200A1581E4B0B40A350C022D223C921D2039B00E25089006258194B1A406250C021AE2249019200A150B02189006558154A2A406250E3
:40920000AC229200A1580B40A350C0228021D200A35809060B43A350012282400D4B18681D009043186002D10100FFF7B5FF2B68002B05D1C1220821D200A3580B43A350A6
:40924000002070BDB8910100FFFF9FFFFEF7FFFFFFE7FFFFBC08002010B504000BF05CF8012120000AF0BEFD9A235B006343054AD318FE331B8B584319235843400A80B234
:4092800010BDC04660130020F0B505009DB0101E7CD03F4BAE00F2500C005A2900D25A24012128000CF07AF84078642140B260430DF0CEFF374B04199C4200D9364C374FCC
:4092C0006622390002A808310EF0E0F81C236B43334A0197D3181A7F002A12D00A21002061435A8B2F4BD218430002AFFB5A9B188B4203D30A240A30444302E0013033282E
:40930000F2D1012128000CF049F807008079642160430EF091F9412801D9412002E00023092801D90A38430001986E30C45CC018437801931C4BBF789E590DF03AFACA22CA
:409340001A4BD200B1585F55194B0B40C0210B43A1080B43C0216407C9050C401C43019B14491B031C43B450C5229200B3589B0A9B020B43B350D22320219B00F1503C324E
:40938000B3580B43B3500DF018FA01201DB0F0BDC4080020250200002602000018840100440200201CF3FFFFB8910100E8080020F80FFC1F45050000F0B587B00192049390
:4093C00006000D000DF0F5F90021059030000BF0E5FF837801335B10DBB21A1C202B00D920220123C356D7B202934B4BB200D45833005A1E93410222D31A0393474B9B19AC
:409400001B79934204D1013A0199300001F0DEFC0222424B04999B191A71414AB30099500121404A02989950684363310DF010FF3D4B4519A8B2984204D83C4B984202D8BF
:409440003B4800E018000122039D3A49AA400A2563586843934363507D210DF0F9FE2900C8380EF0E9F8012E4BD0D422D200A35800061B021B0A1843A05001252E4A0A2021
:40948000A3582B43A350A358AB40EB40A35003F040F9E1229200A358AB43A350A158274B0B401021002F06D0F820254980000B43791E490101400B43A350FA230221FC22AE
:4094C0009B009200E150A3580B43A350134B9E1932798A4210D101991A4B002901D0852100E08421890060580340012003436350103163581343635005980DF05EF907B0F6
:40950000F0BDD822FF251049D2008B580730AB4380B218438850B0E7B8910100BC080020DC080020D4080020C05D00006F170000701700002C060000D407000001F8FFFFD5
:4095400005040000FFFFEFFF00000A40F8B5F02343431B4A0500D318A8331B780E005B072CD5184B8200D4580DF023F9164B07009B79022B04D100223100280001F026FCFC
:40958000FA2301228020DB00E15800069143E150E1580143E150E021890060580B4B0340635070316358380093436350FA239B00E2500022064B1A600DF0FFF8F8BDC046CD
:4095C00000550000B8910100BC08002008FCFFFFE4080020F023F0B5012643432C4A85B0D3180291A8331B78050033424ED0294B8700FC58431E5A1E93419B1901930DF005
:40960000D8F8254B03905B191B79022B04D132000299280001F0DAFB012380201F4A0006A1589943A150A1580143A150E121890060581B4A0240FC20625002218000225896
:409640008A432250FA22019892008340A1501549625813436350012D09D1D822FF201249D2008B588343D73803438B5008E0D422A021D200A35889051B021B0A0B43A350EB
:4096800000220A4B0398DA510DF097F805B0F0BD00550000B8910100BC080020D407000008F8FFFF2C06000000000A40DC080020F8B5104B8500EC5806000DF07AF8CA2370
:4096C000D4210D4ADB00E250202289006358070093436350D2239B00E250300019210CF019FF38000DF069F80022044B0120EA50F8BDC046B891010040000080C4080020A8
:4097000010B5092902D1093108F0A0FA10BD70B504000DF003FB050004212000673502F0F3FF2B781221002B00D10739200008F08DFA70BD70B504000D000DF0EFFA0600D8
:40974000062D09D0082D44D0022D49D11B220921200002F055FE43E02249200002F0FAFE002832D094239B0063431F4D5A599278032A04D11721200008F068FA30E08B212C
:409780008F22EB1889005918096892009A18116090217536327889005B18012A03D10B321A70262102E010220B211A70200008F04DFA94228F23920062439B00AD18EA189C
:4097C000162120000DF0E6FC0AE0200008F072FB06E0200010210DF0CFFC200008F0EAFB70BDC04618100000580D0020F0B585B00D0004000DF092FA02000700FC32A81E77
:40980000916C062800D98CE00DF0A0FF046A77777F8B870094239B0063434348C31843481B181878012806D1002102221970200009F08CF875E038003B004530FF3006881E
:409840004833B605B00D84463220FF331B78926C5B065B0F41339B00FB185D681203920D03922A03920D02924243DB8801929B049B0D2F4A1E052A403500019E1543009631
:40988000120E01D0584300902A4B664619400B0100D5039E1C222000092102F0B1FD94239B005C43204B6A461C198A2392889B00E3181A806A46204B1288E3181A8089233A
:4098C0009B00E3181E801D4A029B15409B021D438D239B00E4183B00FC332560DD6520E00321200002F010FF200008F033F81C220921200002F084FD13E02000002102F0BD
:4099000003FF200008F0D6FA0BE02000002102F0FBFE200008F04EFB03E01621200008F095F905B0F0BDC046580D002007020000FFFF0FC0FFFFFF8F26020000FF03F0FF9D
:40994000F8B50D0004000DF0E9F90700A81E08286BD80DF0FBFE05185656566A6A6A5A00200007F03DFF94239B0063432F4A20009A583B009168FC339964C0373B682C4A17
:409980001B6C984751E09425AD006543274A294B5519EB181B781600032B04D11521200008F054F941E03A008F23FC32926C9B00EB181A60902275373B789200AD18002B81
:4099C00003D108332B700F2106E020000DF026FB002805D126212870200008F037F904E0042320002B7008F0E5FA94228F23920062439B00B218D218162120000DF0CAFBA0
:409A000013E0200008F056FA0FE094239B006343064A0849D3181A008532FF3212785B181A700021200008F091FFF8BD580D0020C9C0000022020000F0B585B004000F0032
:409A40000DF06CF9037C2B490193030079331B78294ADBB2029394239B006343CB189A18050016780391022F20D1200008F03AF83722002E06D1019B002B08D0029B002B41
:409A800005D132220921200002F0BAFC30E0BE352B88002B28D094239B006343039AD318164A9B1801221A702A88EBE7082F1FD1002E0ED000231370019B1221002B14D036
:409AC000029B002B11D17D352B78002B0DD002390BE00A4A11219B181A78002A05D01E700131200008F0B2F81221200008F0AEF805B0F0BD580D00200302000046020000C8
:409B000070B504000DF00AF99422920062432C4B2C499A185218050010781E0009380A284CD80DF013FE0615424B4B4B4B4B4B4B220066352A78244B002A01D1013200E070
:409B400000222A7020001A5509F072FC1E2132E0382120000DF010FB01236E352B70200008F0B7FE200008F0A9FE20000DF0D6F80300002275331A70673003782221012BB0
:409B800019D194239B0063430E4AF3189B181B781F210A2B0FD02000202108F057F80B4A0921200002F02CFC08E07D352B781B21012B00D01A21200008F048F870BDC0462A
:409BC000580D002047020000881A002071020000F7B50D0004000DF0A1F89422920013006343744E7449F31807005B18A81E1B78082800D9DDE00DF0A9FD0543646464DCF8
:409C0000DCDC24003A00093BC032126818000A2B00D9CEE00DF09AFD06080DCDCDCDCDCDCDCD0F00536C00E0936C644920009847BFE0D36CF9E767373B78012B1CD1536DFF
:409C4000F3E76243B51829008531FF315C4809782818019001700A2B41D0132B00D197E0092B34D0942292006243554BB618F6183278012A00D098E0200008F09BF998E074
:409C800062434F49B21852181278032A15D00D210A2B04D00B3B591E8B410F22D11A942292006243464BB2182000D2180DF072FA2621200007F0CAFF7BE02000FFF720FF49
:409CC00077E0132BD8D0200008F0F4F871E0012964D102000D3120000DF05CFAC2E720000DF01CF8019B07001B78032B46D1030067331978002941D1007C01283ED18122AB
:409D000016331B789200DBB2AA18002B26D18221128889006918012A10D8002A07D1294B0870EB181A70284BED182A7002E00B78002B0AD00C2301990B7006E00B702149E4
:409D400069180B7020496D182B70942381219B0063438900F3185B18013217E03B00C0331D6811802000EB699847002800D079E7703739786B692000984773E794238122C5
:409D80009B0063439200F3189B1800221A8069E7032903D00123019A137063E7942292006243074BB618F61832780021200008F0CDFDF7BD580D002047020000C9C00000A8
:409DC00022020000090200000A020000F0B585B004000F000CF0A2FF0300C0331E6894238C219B006343804A8900D51869180968009001918B218900691809687B480291AC
:409E00008A218900591841580903890D0391062F00D189E0082F00D1CFE0022F00D0E1E00027734B2000EB181F7008F052FDFA2209215200200002F0E3FA6E4BED182B7800
:409E4000012B01D12F70CDE0009BBC4675331B78012B03D1009BAE331B889C46029B5B0101D5019B0BE094239B0063435E4AD318614A9B181B78039A1B0702D4029B9A051C
:409E8000920D94239B00634357485C49C3185B181B78F539FF398B430700002B06D1019B0D391B039B0D4B431D0019E0C02B0ED164220199019B0D040521DB011B0E2D0E60
:409EC00053435543029A5206520E4A4308E03221019B01989B0005039B0DAD0D4B434D439420800060433818454F99B2C71939808A27BF00C7193D808927BF0095B2C01985
:409F00000580634506D002D92000F36A9847336B322106E0009BAC331B889A4262D82900336B200098475DE04021200002F012FB002854D0039B02999A02324B2000194043
:409F4000009B0A43FC335A65019A9A6507F0AEFE009B2000AE331988F36A9847009B2000AC331988336B98472000736B984720000DF092F8002835D0009B1B78022B31D18F
:409F8000009B94331B78012B2CD92B006433FF331B789B0626D5009B6A331B78DBB2002B20D193229200AA181370174AAA1813700F4BED1801232B7014E08F2102988900CD
:409FC000691808609021D31889008F226D181421920029709A18023120000DF0DBF8200007F0E8FF05B0F0BD580D00205C0D00204D020000060200002F02000033020000BD
:40A0000026020000FF03F0FF4E02000073B50E0004000CF083FE0500B01E082858D80DF095FB0527232C2C5757573000200008F050FC20000CF094FF94239B0063431E003B
:40A04000244A5936FF36B6189958300024220DF01DFA2B00FC331E66C0352B681E4ADB6B31002000984733E0A4352B685B0604D50D21200007F0EAFD2AE0200007F01AFF02
:40A0800026E094218900614312488B2243181D008135FF352D6892009A1815608C2292009D18083A9B18DB7941185B065A0F942363439B1857339B001B5802222B608B239B
:40A0C0009B00C918009101230021200008F00CFC73BDC046580D0020C9C0000010B50400881E042815D80DF031FB030D111111000021200009F084F903220021200008F0A1
:40A1000025FC06E02000FFF702FB02E0200007F051FF10BD10B50400881E062849D80DF015FB04122F3133483D00200040210DF053F80021200009F063F90D220021200027
:40A1400008F004FC35E0942391209B00634319491A008000CB181B180020187091238A189B00D218200013210DF014F82000032102F0CAFA1B220921200002F041F918E092
:40A18000002110E001210EE00821200002F0E2F900280BD02000FFF7BAFA0AE0102120000CF0EAFF0221200002F0AEFA200007F001FF10BD580D002037B50400881E062871
:40A1C00028D80DF0C3FA040E1414162714000121200009F015F90D220121200008F0B6FB18E01B220921200002F00AF912E012210DE09420002280006043074D0092012130
:40A200000823405902F004F9414241411131200007F01CFD37BDC046580D002037B50400881E0A2854D80DF091FA062B3939315353535353390020000CF070FD03009533F9
:40A240001A78244B1900012A03D97C3001784903194394229200130063431F48C5182A0001237D32FF3211602000009219000F2208F03AFB194BED182B7801332B7027E001
:40A280001B220121200002F0BBF821E094239B006343114A2000995802F0F4F8012120000CF038F98021200049010CF095FF092120000CF015F9002806D020000CF02EFD94
:40A2C0001323A230037003E01221200007F0BEFC37BDC046018000FF580D00200202000070B50E0004000CF019FD0500B01E062800D986E00DF02AFA041C5656565A69006A
:40A3000094239B0063433F4AC035D3183E4A2D689B18198820006B6898472000EB683B499847C82209215200200002F069F868E094239B00634333482A00C3188D20FC322F
:40A34000916C800011651B181B682000D365D16407F0ACFC2B008B331B78002B03D10121200001F0E4F920000CF0A2FE002848D02B78022B45D12B0094331B78012B40D9D1
:40A38000A0352B78002B3CD1012C3AD820000CF0C5FC03009F331B78002B32D1A030013303702EE0200007F005FE2AE0200009210CF0B0F88021200049000CF00DFF06226A
:40A3C0000021200008F0C2FA1BE09423902018269B0063430B491A008000CB18181806708F20FC3580001B18A86C8A1818608F239B002000D21816210CF0CCFE200007F0E4
:40A4000057FE70BD580D00202602000095C0000070B50E0004000CF081FC0500B01E0B2842D80DF093F90641414127412B414141413EB4220921200001F0E2FF2B7C012BDC
:40A4400032D12B0079331B78002B2DD194239B006343164AD318164A9B181E780CF0CAFA864221D21123A2352B70042120000CF0A7FE19E0200007F01DFD15E094239B00E2
:40A4800063430A4AD3180B4A9B181B78312B04D81221200007F0DAFB06E0200007F0AEFB02E0200007F086FD70BDC046580D0020020200000102000073B50E0004000CF0AE
:40A4C0002DFC0500B01E0B2800D9A0E00DF03EF906214253719C8A9F9F9F9F922B0074331B78062B06D1C0352B6849491B69200098478CE020000CF019FC2B000D35FF35F7
:40A500007E331B78012200950021200008F0ECF97DE0022120000BF0FDFF8021200089010CF05AFE012376352B7094239B006343384A2000D31880229200991800220A705B
:40A5400035495B18F9391A70FF391B3201F058FF28212AE02B0075331B78012B0BD194239B0063432B4A2621D3182C4A9B181B78012B2CD132E076352978C9B200292DD11C
:40A580009425AD006543234B20005D19224BED182B7801332B7008F033FF1321200007F055FB2B78062B32D1272120000CF0E4FD2DE09420012280006043164D00920423A1
:40A5C0000021405901F024FF002804D01421200007F03CFB1BE0200007F002F9200007F069FC14E0200010210CF0C6FD200007F0E1FC0CE076352B78002B08D1802120008E
:40A6000089010CF0DDFD02E0200007F0F7FA73BD95C00000580D0020010200000B02000010B5024B8200D358984710BDC408002010B500280AD00CF0F7FE002802D103F0B9
:40A6400061FF03E0012801D103F078FF10BD000010B50B4B1B78002B11D000280FD00CF0E3FE002804D1074B07480433D98F04E0012804D1034B0548D98CFDF751FC10BD9A
:40A68000D50B002044020020148501002285010007B50422094901A80CF0F8FE084B1B78002B09D01922042101A8FDF709FB002802D00448FDF734FC07BDC046F884010087
:40A6C000D50B00203085010013B56B469C1D0023238098420CD00CF0A7FE1722208002212000FDF7EDFA00280DD02188064808E0172202212000FDF7E3FA002803D0218889
:40A700000248FDF70DFC13BD3C8501004885010010B5054B1B78002B04D002F001F80348FDF7FEFB10BDC046D50B00205485010010B5154B04001B78002B24D0002819D00F
:40A740000CF072FE002808D1A01C0CF06DFE01000120FDF785FB0D4809E0012813D1A01C0CF062FE01000020FDF77AFB0848FDF7D7FB08E0074C0848E18EFDF7D1FB618B0A
:40A780000648FDF7CDFB10BDD50B0020608501006E850100440200207C8501008A85010030B585B005000822002102A80CF077FE002301932D4B01AC1B78002B54D0002D00
:40A7C00052D028000CF030FE051E08D1284B29480293039396235B00238063800AE001280BD1234B24480293244B039396235B0023806380FDF794FB27E0022809D11C4B4E
:40A800001F4802931F4B039396235B0023806380F0E703280AD1164B1B4802931B4B039396235B0023804B3B6380E3E70A210CF00FFDC8235B02C31880B220806080290035
:40A84000134802930393FDF76BFB02A9022009F0C3FD2200022101200CF006FA002301211A0008000CF070F905B030BDD50B00202C91010098850100A38501002CD102009E
:40A88000AE8501002CB10400B9850100E1400600C485010013B508220400002168460CF0FEFD002C26D020000CF0BEFD040001280FD1114B69460093104B0220019309F069
